{
  "_format": "hh-sol-artifact-1",
  "contractName": "GM",
  "sourceName": "contracts/GM.sol",
  "abi": [
    {
      "anonymous": false,
      "inputs": [
        {
          "indexed": true,
          "internalType": "address",
          "name": "sender",
          "type": "address"
        },
        {
          "indexed": false,
          "internalType": "string",
          "name": "message",
          "type": "string"
        },
        {
          "indexed": false,
          "internalType": "uint256",
          "name": "timestamp",
          "type": "uint256"
        }
      ],
      "name": "NewGM",
      "type": "event"
    },
    {
      "inputs": [],
      "name": "getHistory",
      "outputs": [
        {
          "components": [
            {
              "internalType": "address",
              "name": "sender",
              "type": "address"
            },
            {
              "internalType": "string",
              "name": "message",
              "type": "string"
            },
            {
              "internalType": "uint256",
              "name": "timestamp",
              "type": "uint256"
            }
          ],
          "internalType": "struct GM.GMMessage[]",
          "name": "",
          "type": "tuple[]"
        }
      ],
      "stateMutability": "view",
      "type": "function"
    },
    {
      "inputs": [
        {
          "internalType": "uint256",
          "name": "",
          "type": "uint256"
        }
      ],
      "name": "gmHistory",
      "outputs": [
        {
          "internalType": "address",
          "name": "sender",
          "type": "address"
        },
        {
          "internalType": "string",
          "name": "message",
          "type": "string"
        },
        {
          "internalType": "uint256",
          "name": "timestamp",
          "type": "uint256"
        }
      ],
      "stateMutability": "view",
      "type": "function"
    },
    {
      "inputs": [
        {
          "internalType": "string",
          "name": "_message",
          "type": "string"
        }
      ],
      "name": "sayGM",
      "outputs": [],
      "stateMutability": "nonpayable",
      "type": "function"
    },
    {
      "inputs": [],
      "name": "totalGMs",
      "outputs": [
        {
          "internalType": "uint256",
          "name": "",
          "type": "uint256"
        }
      ],
      "stateMutability": "view",
      "type": "function"
    }
  ],
  "bytecode": "0x608060405234801561001057600080fd5b50610c94806100206000396000f3fe608060405234801561001057600080fd5b506004361061004c5760003560e01c80638cb09282146100515780639d95189a1461006d578063a29002ac1461009f578063aa15efc8146100bd575b600080fd5b61006b600480360381019061006691906104fb565b6100db565b005b6100876004803603810190610082919061057e565b610253565b6040516100969392919061068b565b60405180910390f35b6100a7610335565b6040516100b491906106c9565b60405180910390f35b6100c561033b565b6040516100d2919061085e565b60405180910390f35b60016000808282546100ed91906108af565b92505081905550600160405180606001604052803373ffffffffffffffffffffffffffffffffffffffff16815260200184848080601f016020809104026020016040519081016040528093929190818152602001838380828437600081840152601f19601f82011690508083019250505050505050815260200142815250908060018154018082558091505060019003906000526020600020906003020160009091909190915060008201518160000160006101000a81548173ffffffffffffffffffffffffffffffffffffffff021916908373ffffffffffffffffffffffffffffffffffffffff16021790555060208201518160010190816101f09190610b1e565b506040820151816002015550503373ffffffffffffffffffffffffffffffffffffffff167fe8f662e6d52900213462af258d671b4b0dc27d9dc8c2419b8c2551294549b17e83834260405161024793929190610c2c565b60405180910390a25050565b6001818154811061026357600080fd5b90600052602060002090600302016000915090508060000160009054906101000a900473ffffffffffffffffffffffffffffffffffffffff16908060010180546102ac90610941565b80601f01602080910402602001604051908101604052809291908181526020018280546102d890610941565b80156103255780601f106102fa57610100808354040283529160200191610325565b820191906000526020600020905b81548152906001019060200180831161030857829003601f168201915b5050505050908060020154905083565b60005481565b60606001805480602002602001604051908101604052809291908181526020016000905b8282101561048357838290600052602060002090600302016040518060600160405290816000820160009054906101000a900473ffffffffffffffffffffffffffffffffffffffff1673ffffffffffffffffffffffffffffffffffffffff1673ffffffffffffffffffffffffffffffffffffffff1681526020016001820180546103e890610941565b80601f016020809104026020016040519081016040528092919081815260200182805461041490610941565b80156104615780601f1061043657610100808354040283529160200191610461565b820191906000526020600020905b81548152906001019060200180831161044457829003601f168201915b505050505081526020016002820154815250508152602001906001019061035f565b50505050905090565b600080fd5b600080fd5b600080fd5b600080fd5b600080fd5b60008083601f8401126104bb576104ba610496565b5b8235905067ffffffffffffffff8111156104d8576104d761049b565b5b6020830191508360018202830111156104f4576104f36104a0565b5b9250929050565b600080602083850312156105125761051161048c565b5b600083013567ffffffffffffffff8111156105305761052f610491565b5b61053c858286016104a5565b92509250509250929050565b6000819050919050565b61055b81610548565b811461056657600080fd5b50565b60008135905061057881610552565b92915050565b6000602082840312156105945761059361048c565b5b60006105a284828501610569565b91505092915050565b600073ffffffffffffffffffffffffffffffffffffffff82169050919050565b60006105d6826105ab565b9050919050565b6105e6816105cb565b82525050565b600081519050919050565b600082825260208201905092915050565b60005b8381101561062657808201518184015260208101905061060b565b60008484015250505050565b6000601f19601f8301169050919050565b600061064e826105ec565b61065881856105f7565b9350610668818560208601610608565b61067181610632565b840191505092915050565b61068581610548565b82525050565b60006060820190506106a060008301866105dd565b81810360208301526106b28185610643565b90506106c1604083018461067c565b949350505050565b60006020820190506106de600083018461067c565b92915050565b600081519050919050565b600082825260208201905092915050565b6000819050602082019050919050565b610719816105cb565b82525050565b600082825260208201905092915050565b600061073b826105ec565b610745818561071f565b9350610755818560208601610608565b61075e81610632565b840191505092915050565b61077281610548565b82525050565b60006060830160008301516107906000860182610710565b50602083015184820360208601526107a88282610730565b91505060408301516107bd6040860182610769565b508091505092915050565b60006107d48383610778565b905092915050565b6000602082019050919050565b60006107f4826106e4565b6107fe81856106ef565b93508360208202850161081085610700565b8060005b8581101561084c578484038952815161082d85826107c8565b9450610838836107dc565b925060208a01995050600181019050610814565b50829750879550505050505092915050565b6000602082019050818103600083015261087881846107e9565b905092915050565b7f4e487b7100000000000000000000000000000000000000000000000000000000600052601160045260246000fd5b60006108ba82610548565b91506108c583610548565b92508282019050808211156108dd576108dc610880565b5b92915050565b7f4e487b7100000000000000000000000000000000000000000000000000000000600052604160045260246000fd5b7f4e487b7100000000000000000000000000000000000000000000000000000000600052602260045260246000fd5b6000600282049050600182168061095957607f821691505b60208210810361096c5761096b610912565b5b50919050565b60008190508160005260206000209050919050565b60006020601f8301049050919050565b600082821b905092915050565b6000600883026109d47fffffffffffffffffffffffffffffffffffffffffffffffffffffffffffffffff82610997565b6109de8683610997565b95508019841693508086168417925050509392505050565b6000819050919050565b6000610a1b610a16610a1184610548565b6109f6565b610548565b9050919050565b6000819050919050565b610a3583610a00565b610a49610a4182610a22565b8484546109a4565b825550505050565b600090565b610a5e610a51565b610a69818484610a2c565b505050565b5b81811015610a8d57610a82600082610a56565b600181019050610a6f565b5050565b601f821115610ad257610aa381610972565b610aac84610987565b81016020851015610abb578190505b610acf610ac785610987565b830182610a6e565b50505b505050565b600082821c905092915050565b6000610af560001984600802610ad7565b1980831691505092915050565b6000610b0e8383610ae4565b9150826002028217905092915050565b610b27826105ec565b67ffffffffffffffff811115610b4057610b3f6108e3565b5b610b4a8254610941565b610b55828285610a91565b600060209050601f831160018114610b885760008415610b76578287015190505b610b808582610b02565b865550610be8565b601f198416610b9686610972565b60005b82811015610bbe57848901518255600182019150602085019450602081019050610b99565b86831015610bdb5784890151610bd7601f891682610ae4565b8355505b6001600288020188555050505b505050505050565b82818337600083830152505050565b6000610c0b83856105f7565b9350610c18838584610bf0565b610c2183610632565b840190509392505050565b60006040820190508181036000830152610c47818587610bff565b9050610c56602083018461067c565b94935050505056fea264697066735822122064bc4de69226d3d393af24bcba6f600da445ee227fa393dab1e79380b507a1b964736f6c63430008140033",
  "linkReferences": {},
  "deployedLinkReferences": {}
}